S01A00006174786D6567612D6134752D77616B6575702E7372656332
S11300000C94FE000C9424010C9424010C942401FF
S11300100C9424010C9424010C9424010C942401C8
S11300200C9424010C9424010C9424010C942401B8
S11300300C9424010C9424010C9424010C942401A8
S11300400C9424010C9424010C9424010C94240198
S11300500C9424010C9424010C9424010C94240188
S11300600C9424010C94C0010C9424010C942401DC
S11300700C94F5010C9424010C9424010C94240197
S11300800C9424010C9424010C9424010C94240158
S11300900C9424010C9424010C9424010C94240148
S11300A00C9424010C9424010C9424010C94240138
S11300B00C9424010C9424010C9424010C94240128
S11300C00C9424010C9424010C9424010C94240118
S11300D00C9424010C9424010C9424010C94240108
S11300E00C9424010C9424010C9424010C942401F8
S11300F00C9424010C9424010C9424010C942401E8
S11301000C9424010C9424010C9424010C942401D7
S11301100C9424010C9424010C9424010C942401C7
S11301200C9424010C9424010C9424010C942401B7
S11301300C9424010C9424010C9424010C942401A7
S11301400C9424010C9424010C9424010C94240197
S11301500C9424010C9424010C9424010C94240187
S11301600C942A020C9424010C9424010C945F0234
S11301700C9424010C9424010C9424010C94240167
S11301800C9424010C9424010C9424010C94240157
S11301900C9424010C9424010C9424010C94240147
S11301A00C9424010C9424010C9424010C94240137
S11301B00C9424010C9424010C9424010C94240127
S11301C00C9424010C9424010C9424010C94240117
S11301D00C9424010C9424010C9424010C94240107
S11301E00C9424010C9424010C9424010C942401F7
S11301F00C9424010C9424010C94240111241FBE9A
S1130200CFEFCDBFDFE3DEBF00E00CBF18BE19BEE9
S11302101ABE1BBE10E2A0E0B0E2E8EAF9E000E09A
S11302200BBF02C007900D92A630B107D9F71BBED1
S113023020E2A6E0B0E201C01D92A637B207E1F7C2
S11302400E9426010C94D2040C940000CF93DF93F7
S1130250CDB7DEB76C97CDBFDEBFE0E5F0E088E157
S1130260858380E18083818184FFFDCF88ED84BF15
S113027084E0809340006894EE24E4F808E024E0ED
S113028040E456E060EA78E0CE0102960E94FA0269
S11302908BE1FE013296A1E2B0E201900D928A95C3
S11302A0E1F781E290E20E942F036894EE24E5F8DE
S11302B000E820E440E456E060EB78E0CE010296EA
S11302C00E94FA028BE1FE013296A6E0B0E20190B0
S11302D00D928A95E1F786E090E20E942F036894DC
S11302E0EE24E4F808E024E040E656E060EA79E031
S11302F0CE0102960E94FA028BE1FE013296A7E536
S1130300B0E201900D928A95E1F787E590E20E94B0
S11303102F036894EE24E5F800E820E440E656E074
S113032060EB79E0CE0102960E94FA028BE1FE01B5
S11303303296ACE3B0E201900D928A95E1F78CE33A
S113034090E20E942F03E0EAF0E0828187608283DA
S1130350789481E290E20E949403BE016F5F7F4F24
S113036086E090E20E948303882399F387E590E274
S11303700E94940369818CE390E20E948C03E9CF8C
S11303801F920F920FB60F92112408B60F9218BE47
S113039009B60F9219BE0BB60F921BBE2F933F9353
S11303A04F935F936F937F938F939F93AF93BF9379
S11303B0EF93FF9381E290E20E946503FF91EF9136
S11303C0BF91AF919F918F917F916F915F914F9169
S11303D03F912F910F900BBE0F9009BE0F9008BE56
S11303E00F900FBE0F901F9018951F920F920FB68B
S11303F00F92112408B60F9218BE09B60F9219BEB7
S11304000BB60F921BBE2F933F934F935F936F9343
S11304107F938F939F93AF93BF93EF93FF9386E064
S113042090E20E946503FF91EF91BF91AF919F917C
S11304308F917F916F915F914F913F912F910F9089
S11304400BBE0F9009BE0F9008BE0F900FBE0F9009
S11304501F9018951F920F920FB60F92112408B691
S11304600F9218BE09B60F9219BE0BB60F921BBE9F
S11304702F933F934F935F936F937F938F939F93A8
S1130480AF93BF93EF93FF9387E590E20E946503D8
S1130490FF91EF91BF91AF919F918F917F916F9158
S11304A05F914F913F912F910F900BBE0F9009BE1A
S11304B00F9008BE0F900FBE0F901F9018951F92BB
S11304C00F920FB60F92112408B60F9218BE09B6F8
S11304D00F9219BE0BB60F921BBE2F933F934F93EF
S11304E05F936F937F938F939F93AF93BF93EF9398
S11304F0FF938CE390E20E946503FF91EF91BF911B
S1130500AF919F918F917F916F915F914F913F91A7
S11305102F910F900BBE0F9009BE0F9008BE0F9045
S11305200FBE0F901F901895009739F0FC011282AE
S113053013821482158281E0089580E00895CF9398
S1130540DF93EC01CB016E837F830E94B103888328
S11305509983CE010E94940281E0DF91CF910895A6
S1130560FC01892BF1F0A081B18182819381A80FD4
S1130570B91F6C9326813781828193810196B901D9
S11305800E949D0382839383448155818417950738
S113059051F40196B9010E949D038483958381E0FF
S11305A0089580E0089581E00895FC01892BE1F02D
S11305B061157105D9F022813381848195812817D1
S11305C03907B1F0A081B181A80FB91F8C91DB016B
S11305D08C93848195810196668177810E949D0325
S11305E08483958381E0089580E0089580E00895F0
S11305F080E00895CF92DF92EF920F93CF93DF9331
S1130600CDB7DEB76B97CDBFDEBF6C0169837A834C
S11306104B835C832D830E83EF82188619861A869A
S113062060E870E0CE010C960E949F0260E870E0E2
S1130630CE0144960E949F028BE1FE013196D601C1
S113064001900D928A95E1F7C6016B96CDBFDEBF8E
S1130650DF91CF910F91EF90DF90CF900895FC013F
S1130660A081B1818BE916968C93A081B1811796F4
S11306701C92A081B18113968C911397806113967B
S11306808C93A081B18188E114968C93A081B1816F
S113069083E015968C93A281B381858115968C9302
S11306A0A281B381858111968C93A281B3818481C7
S11306B012968C93A281B381848116968C93A28125
S11306C0B381868111968C930895FC01A281B38134
S11306D0868117968C93A081B1816C916287818504
S11306E0882319F0813031F008956E3759F481E090
S11306F0818708956E3711F411860895CF010B9602
S11307000E94B00208950B960E94D50291E08111D7
S113071001C090E0892F0895DC01ED91FC91818165
S113072085FFFDCF60830895DC011296ED91FC9165
S1130730139716968C9187830895AA1BBB1B51E1CE
S113074007C0AA1FBB1FA617B70710F0A61BB70B3D
S1130750881F991F5A95A9F780959095BC01CD01E2
S113076008950F931F93CF93DF938230910510F474
S113077082E090E0E0917420F091752020E030E078
S1130780A0E0B0E0309719F14081518102811381DA
S113079048175907C8F08417950769F4109731F082
S11307A012960C93129713961C9327C000937420EF
S11307B01093752022C02115310519F042175307F3
S11307C018F49A01BD01EF01DF01F801DBCF211517
S11307D03105F9F0281B390B2430310580F48A8166
S11307E09B816115710521F0FB018283938304C011
S11307F08093742090937520FE01329644C0FE01CC
S1130800E20FF31F81939193225031092883398396
S11308103AC02091722030917320232B41F420910F
S11308200220309103202093722030937320209172
S11308300020309101202115310541F42DB73EB738
S11308404091042050910520241B350BE091722027
S1130850F0917320E217F307A0F42E1B3F0B281727
S1130860390778F0AC014E5F5F4F2417350748F025
S11308704E0F5F1F40937220509373208193919386
S113088002C0E0E0F0E0CF01DF91CF911F910F9122
S11308900895CF93DF93009709F481C0FC01329748
S11308A012821382A0917420B0917520109781F464
S11308B020813181820F931F209172203091732007
S11308C02817390751F5E0937220F093732067C01D
S11308D0ED0120E030E0CE17DF0740F44A815B8170
S11308E09E0141155105F1F0EA01F5CFC283D3838E
S11308F040815181840F951FC817D90759F4888105
S11309009981840F951F0296808391838A819B81AC
S1130910828393832115310529F4E0937420F093A5
S113092075203DC0E901EA83FB8349915991C40FC5
S1130930D51FEC17FD0761F480819181840F951F09
S11309400296E90188839983828193818A839B83B8
S1130950E0E0F0E012968D919C911397009719F0C6
S1130960FD01DC01F7CF8D919C9111979D012E5FC4
S11309703F4F820F931F20917220309173202817CC
S1130980390769F4309729F4109274201092752075
S113099002C012821382A0937220B0937320DF915D
S10B09A0CF910895F894FFCFF4
S10909A80000762020008F
S9030000FC
