:100000000C94FE000C9424010C9424010C94240103
:100010000C9424010C9424010C9424010C942401CC
:100020000C9424010C9424010C9424010C942401BC
:100030000C9424010C9424010C9424010C942401AC
:100040000C9424010C9424010C9424010C9424019C
:100050000C9424010C9424010C9424010C9424018C
:100060000C9424010C946A020C9424010C94240135
:100070000C949F020C9424010C9424010C942401F0
:100080000C9424010C9424010C9424010C9424015C
:100090000C9424010C9424010C9424010C9424014C
:1000A0000C9424010C9424010C9424010C9424013C
:1000B0000C9424010C9424010C9424010C9424012C
:1000C0000C9424010C9424010C9424010C9424011C
:1000D0000C9424010C9424010C9424010C9424010C
:1000E0000C9424010C9424010C9424010C942401FC
:1000F0000C9424010C9424010C9424010C942401EC
:100100000C9424010C9424010C9424010C942401DB
:100110000C9424010C9424010C9424010C942401CB
:100120000C9424010C9424010C9424010C942401BB
:100130000C9424010C9424010C9424010C942401AB
:100140000C9424010C9424010C9424010C9424019B
:100150000C9424010C9424010C9424010C9424018B
:100160000C94D4020C9424010C9424010C940903E3
:100170000C9424010C9424010C9424010C9424016B
:100180000C9424010C9424010C9424010C9424015B
:100190000C9424010C9424010C9424010C9424014B
:1001A0000C9424010C9424010C9424010C9424013B
:1001B0000C9424010C9424010C9424010C9424012B
:1001C0000C9424010C9424010C9424010C9424011B
:1001D0000C9424010C9424010C9424010C9424010B
:1001E0000C9424010C9424010C9424010C942401FB
:1001F0000C9424010C9424010C94240111241FBE9E
:10020000CFEFCDBFDFE3DEBF00E00CBF18BE19BEED
:100210001ABE1BBE20E2A6E0B0E201C01D92A33CC4
:10022000B207E1F710E2A0E0B0E2E2E2FBE000E0BA
:100230000BBF02C007900D92A630B107D9F71BBEC5
:100240000E945C010C948F050C9400000F931F9387
:10025000CF93DF9388E080934506CEE5D0E204EAB1
:1002600010E2699183E490E20E943704C017D1073D
:10027000C1F788E080934606DF91CF911F910F91DF
:1002800008950F931F93CF93DF9388E080934506E3
:10029000C6E0D0E20DE010E2699183E490E20E94B2
:1002A0003704C017D107C1F788E080934606DF9175
:1002B000CF911F910F910895CF93DF93CDB7DEB704
:1002C0006C97CDBFDEBFE0E5F0E088E1858380E19B
:1002D0008083818184FFFDCF88ED84BF14E010937B
:1002E00040006894EE24E4F808E024E040E456E09E
:1002F00060EA78E0CE0102960E94A4038BE1FE0141
:100300003296A8E2B0E201900D928A95E1F788E07A
:10031000809341066894EE24E5F800E820E440E488
:1003200056E060EB78E0CE0102960E94A4038BE1D8
:10033000FE013296ADE0B0E201900D928A95E1F7B0
:100340008DE090E20E94D9036894EE24E4F808E07E
:1003500024E040E656E060EA79E0CE0102960E9491
:10036000A4038BE1FE013296A4EAB0E201900D9263
:100370008A95E1F784EA90E20E94D9036894EE241A
:10038000E5F800E820E440E656E060EB79E0CE01D5
:1003900002960E94A4038BE1FE013296A3E4B0E230
:1003A00001900D928A95E1F783E490E20E94D903CF
:1003B000E0E6F6E092E0928321E0228388E1818BFF
:1003C000808BE0EAF0E08281876082837894EEE5BA
:1003D000F0E28EE7808321839283138390E49483F9
:1003E0008093A320E6E0F0E2808386830DE010E2B4
:1003F0000F2EF0E6EF2EF6E0FF2EF02D0F2EF0E49C
:10040000CF2EF6E0DF2EF02D6894BB24B3F888E2FF
:1004100090E20E943F04F8018185823039F584EA38
:1004200090E20E944804F601B5826EE783E490E210
:100430000E94370405C0698183E490E20E9437047A
:10044000BE016F5F7F4FC8010E942E048111F3CF60
:100450006EE783E490E20E943704F601B68284EAF4
:1004600090E20E945104F8011186D1CFF7018085F6
:1004700081FD16C084EA90E20E94480483E490E281
:100480000E94260184EA90E20E945104FFE724E8DA
:100490008EE1F15020408040E1F700C00000B7CF6E
:1004A000F701808580FDB3CF84EA90E20E94480482
:1004B00083E490E20E94410184EA90E20E945104A8
:1004C000FFE724E88EE1F15020408040E1F700C0D2
:1004D00000009DCF1F920F920FB60F92112408B605
:1004E0000F9218BE09B60F9219BE0BB60F921BBE23
:1004F0002F933F934F935F936F937F938F939F932C
:10050000AF93BF93EF93FF9388E290E20E940F04B2
:10051000FF91EF91BF91AF919F918F917F916F91DB
:100520005F914F913F912F910F900BBE0F9009BE9D
:100530000F9008BE0F900FBE0F901F9018951F923E
:100540000F920FB60F92112408B60F9218BE09B67B
:100550000F9219BE0BB60F921BBE2F933F934F9372
:100560005F936F937F938F939F93AF93BF93EF931B
:10057000FF938DE090E20E940F04FF91EF91BF91F5
:10058000AF919F918F917F916F915F914F913F912B
:100590002F910F900BBE0F9009BE0F9008BE0F90C9
:1005A0000FBE0F901F9018951F920F920FB60F92CB
:1005B000112408B60F9218BE09B60F9219BE0BB6D9
:1005C0000F921BBE2F933F934F935F936F937F9335
:1005D0008F939F93AF93BF93EF93FF9384EA90E23F
:1005E0000E940F04FF91EF91BF91AF919F918F9166
:1005F0007F916F915F914F913F912F910F900BBE23
:100600000F9009BE0F9008BE0F900FBE0F901F9065
:1006100018951F920F920FB60F92112408B60F92E1
:1006200018BE09B60F9219BE0BB60F921BBE2F93C0
:100630003F934F935F936F937F938F939F93AF936A
:10064000BF93EF93FF9383E490E20E940F04FF9126
:10065000EF91BF91AF919F918F917F916F915F913A
:100660004F913F912F910F900BBE0F9009BE0F90AD
:1006700008BE0F900FBE0F901F901895009739F08D
:10068000FC01128213821482158281E0089580E0B9
:100690000895CF93DF93EC01CB016E837F830E949B
:1006A0006E0488839983CE010E943E0381E0DF912E
:1006B000CF910895FC01892BF1F0A081B181828155
:1006C0009381A80FB91F6C93268137818281938112
:1006D0000196B9010E945A04828393834481558113
:1006E0008417950751F40196B9010E945A04848336
:1006F000958381E0089580E0089581E00895FC01EC
:10070000892BE1F061157105D9F022813381848153
:10071000958128173907B1F0A081B181A80FB91FC1
:100720008C91DB018C938481958101966681778120
:100730000E945A048483958381E0089580E008959F
:1007400080E0089580E00895CF92DF92EF920F93BA
:10075000CF93DF93CDB7DEB76B97CDBFDEBF6C0114
:1007600069837A834B835C832D830E83EF821886A3
:1007700019861A8660E870E0CE010C960E94490343
:1007800060E870E0CE0144960E9449038BE1FE01CF
:100790003196D60101900D928A95E1F7C6016B96CC
:1007A000CDBFDEBFDF91CF910F91EF90DF90CF9063
:1007B0000895FC01A081B18182E016968C93A081FE
:1007C000B18117961C92A081B18113968C911397D9
:1007D000806113968C93A081B18188E114968C93EB
:1007E000A081B18183E015968C93A281B38185812C
:1007F00015968C93A281B381858111968C93A281E9
:10080000B381848112968C93A281B38184811696E0
:100810008C93A281B381868111968C930895FC01FB
:10082000A281B381868117968C93A081B1816C914E
:1008300062878185882319F0813031F008956E3701
:1008400061F481E0818708956E3719F482E0818731
:100850000895CF010B960E945A0308950B960E94AB
:100860007F0391E0811101C090E0892F0895DC01A0
:10087000ED91FC91818185FFFDCF60830895DC01BE
:100880001296ED91FC91139716968C91878308959B
:10089000DC011296ED91FC91139716968C9185834D
:1008A0000895DC011296ED91FC91139716968C91A8
:1008B00086830895AA1BBB1B51E107C0AA1FBB1F5B
:1008C000A617B70710F0A61BB70B881F991F5A95DC
:1008D000A9F780959095BC01CD0108950F931F93C2
:1008E000CF93DF938230910510F482E090E0E091A5
:1008F000C120F091C22020E030E0A0E0B0E03097CD
:1009000019F1408151810281138148175907C8F0BC
:100910008417950769F4109731F012960C9312978B
:1009200013961C9327C00093C1201093C22022C0AD
:100930002115310519F04217530718F49A01BD012A
:10094000EF01DF01F801DBCF21153105F9F0281B9C
:10095000390B2430310580F48A819B816115710542
:1009600021F0FB018283938304C08093C120909384
:10097000C220FE01329644C0FE01E20FF31F8193B4
:10098000919322503109288339833AC02091BF20A6
:100990003091C020232B41F420910220309103207C
:1009A0002093BF203093C02020910020309101205F
:1009B0002115310541F42DB73EB7409104205091E7
:1009C0000520241B350BE091BF20F091C020E217D9
:1009D000F307A0F42E1B3F0B2817390778F0AC0162
:1009E0004E5F5F4F2417350748F04E0F5F1F40934F
:1009F000BF205093C0208193919302C0E0E0F0E0CB
:100A0000CF01DF91CF911F910F910895CF93DF9385
:100A1000009709F481C0FC01329712821382A091E1
:100A2000C120B091C220109781F420813181820FC2
:100A3000931F2091BF203091C0202817390751F50E
:100A4000E093BF20F093C02067C0ED0120E030E0CC
:100A5000CE17DF0740F44A815B819E0141155105A5
:100A6000F1F0EA01F5CFC283D38340815181840F35
:100A7000951FC817D90759F488819981840F951F4C
:100A80000296808391838A819B818283938321153F
:100A9000310529F4E093C120F093C2203DC0E90163
:100AA000EA83FB8349915991C40FD51FEC17FD07C9
:100AB00061F480819181840F951F0296E9018883FA
:100AC0009983828193818A839B83E0E0F0E0129690
:100AD0008D919C911397009719F0FD01DC01F7CFE0
:100AE0008D919C9111979D012E5F3F4F820F931F17
:100AF0002091BF203091C0202817390769F4309722
:100B000029F41092C1201092C22002C012821382D6
:100B1000A093BF20B093C020DF91CF910895F894A7
:020B2000FFCF05
:060B22000000C3202000CA
:00000001FF
