S01A00006174786D6567612D6134752D77616B6575702E7372656332
S11300000C94FE000C9424010C9424010C942401FF
S11300100C9424010C9424010C9424010C942401C8
S11300200C9424010C9424010C9424010C942401B8
S11300300C9424010C9424010C9424010C942401A8
S11300400C9424010C9424010C9424010C94240198
S11300500C9424010C9424010C9424010C94240188
S11300600C9424010C9424010C9424010C94240178
S11300700C9426010C945D010C9424010C9424012D
S11300800C9424010C9424010C9424010C94240158
S11300900C9424010C9424010C9424010C94240148
S11300A00C9424010C9424010C9424010C94240138
S11300B00C9424010C9424010C9424010C94240128
S11300C00C9424010C9424010C9424010C94240118
S11300D00C9424010C9424010C9424010C94240108
S11300E00C9424010C9424010C9424010C942401F8
S11300F00C9424010C9424010C9424010C942401E8
S11301000C9424010C9424010C9424010C942401D7
S11301100C9424010C9424010C9424010C942401C7
S11301200C9424010C9424010C9424010C942401B7
S11301300C9424010C9424010C9424010C942401A7
S11301400C9424010C9424010C9424010C94240197
S11301500C9424010C9424010C9424010C94240187
S11301600C9424010C9424010C9424010C94240177
S11301700C9424010C9424010C9424010C94240167
S11301800C9424010C9424010C9424010C94240157
S11301900C9424010C9424010C9424010C94240147
S11301A00C9424010C9424010C9424010C94240137
S11301B00C9424010C9424010C9424010C94240127
S11301C00C9424010C9424010C9424010C94240117
S11301D00C9424010C9424010C9424010C94240107
S11301E00C9424010C9424010C9424010C942401F7
S11301F00C9424010C9424010C94240111241FBE9A
S1130200CFEFCDBFDFE3DEBF00E00CBF18BE19BEE9
S11302101ABE1BBE20E2A6E0B0E201C01D92AC30C3
S1130220B207E1F710E2A0E0B0E2ECE1F8E000E0B0
S11302300BBF02C007900D92A630B107D9F71BBEC1
S11302400E94B3010C940C040C9400001F920F92B2
S11302500FB60F92112408B60F9218BE09B60F926A
S113026019BE0BB60F921BBE2F933F934F935F9310
S11302706F937F938F939F93AF93BF93EF93FF936A
S113028080910620909107200E94C202FF91EF9175
S1130290BF91AF919F918F917F916F915F914F919A
S11302A03F912F910F900BBE0F9009BE0F9008BE87
S11302B00F900FBE0F901F9018951F920F920FB6BC
S11302C00F92112408B60F9218BE09B60F9219BEE8
S11302D00BB60F921BBE2F933F934F935F936F9375
S11302E07F938F939F93AF93BF93EF93FF938091EB
S11302F00620909107200E94D402FF91EF91BF91B4
S1130300AF919F918F917F916F915F914F913F91A9
S11303102F910F900BBE0F9009BE0F9008BE0F9047
S11303200FBE0F901F90189580E380934106809331
S113033061060895E0E6F6E080E287832FE332E485
S11303409FE0215030409040E1F700C000008783D7
S11303502FE332E49FE0215030409040E1F700C0A9
S1130360000087830895E0E5F0E088E1858380E17B
S11303708083818184FFFDCF88ED84BF84E08093F6
S113038040000E9494010E949A0100E220E840E4A7
S113039060E476E080EB98E00E94420280930620BD
S11303A0909307200E947602E0EAF0E08281876061
S11303B08283789480910620909107200E94AC0259
S11303C0E0E6F6E080E287832FE332E49FE0215009
S11303D030409040E1F700C00000F5CFCF92DF92AB
S11303E0EF92FF92CF93DF936B017C0189E090E061
S11303F00E94EB02EC01892BC1F0D701C6010196E2
S1130400A11DB11D8D839E83AF83B8870E94EB022B
S113041088839983892B19F01A821B8206C0CE0126
S11304200E94830380E090E009C0288139818D8196
S11304309E81820F931F8C838C2F9D2FDF91CF91F0
S1130440FF90EF90DF90CF900895FC018281A0810E
S1130450B181A80FB11D6C9382818F5F82839481D7
S1130460891301C012820895FC019381A081B18196
S1130470A90FB11D8C919F5F93832481921301C0B6
S113048013820895AF92BF92CF92DF92FF920F939F
S11304901F93CF93DF935C016B01F42E122F8CE03A
S11304A090E00E94EB02EC01A882B982CA82DB824E
S11304B0FC821D830E8360E170E080E090E00E9486
S11304C0EE018F83988760E170E080E090E00E9405
S11304D0EE0189879A87CE01DF91CF911F910F9109
S11304E0FF90DF90CF90BF90AF900895FC01A08162
S11304F0B18182E016968C93A081B18117961C92EB
S1130500A081B18113968C911397806113968C937B
S1130510A081B18188E114968C93A081B18183E09C
S113052015968C93A281B381858115968C93A281B3
S1130530B381858111968C93A281B38184811296B3
S11305408C93A281B381848116968C93A281B3810A
S1130550868111968C930895DC011296ED91FC919D
S1130560139716968C9116978783ED91FC911197AA
S1130570918195FFFDCF8FEF8083ED91FC918AE00F
S113058080830895CF93DF93EC01E881F981608142
S11305908F8198850E942502E881F9818381816099
S11305A08383DF91CF9108950F931F93CF93DF93AC
S11305B0EC01088119818F8198850E943402F80129
S11305C08083E881F98183818C7F8383DF91CF915C
S11305D01F910F9108950F931F93CF93DF93823050
S11305E0910510F482E090E0E0910A20F0910B2054
S11305F020E030E0A0E0B0E0309719F14081518173
S11306000281138148175907C8F08417950769F4C4
S1130610109731F012960C93129713961C9327C0DF
S113062000930A2010930B2022C02115310519F0E4
S11306304217530718F49A01BD01EF01DF01F801D5
S1130640DBCF21153105F9F0281B390B2430310596
S113065080F48A819B816115710521F0FB018283FD
S1130660938304C080930A2090930B20FE0132965A
S113067044C0FE01E20FF31F81939193225031098C
S1130680288339833AC02091082030910920232BF4
S113069041F42091022030910320209308203093CC
S11306A0092020910020309101202115310541F4C9
S11306B02DB73EB74091042050910520241B350BE3
S11306C0E0910820F0910920E217F307A0F42E1B13
S11306D03F0B2817390778F0AC014E5F5F4F2417A2
S11306E0350748F04E0F5F1F4093082050930920B0
S11306F08193919302C0E0E0F0E0CF01DF91CF91CC
S11307001F910F910895CF93DF93009709F481C04F
S1130710FC01329712821382A0910A20B0910B201F
S1130720109781F420813181820F931F209108203A
S1130730309109202817390751F5E0930820F093E8
S1130740092067C0ED0120E030E0CE17DF0740F458
S11307504A815B819E0141155105F1F0EA01F5CF13
S1130760C283D38340815181840F951FC817D90751
S113077059F488819981840F951F0296808391830F
S11307808A819B81828393832115310529F4E09327
S11307900A20F0930B203DC0E901EA83FB834991D1
S11307A05991C40FD51FEC17FD0761F48081918125
S11307B0840F951F0296E90188839983828193812E
S11307C08A839B83E0E0F0E012968D919C911397CD
S11307D0009719F0FD01DC01F7CF8D919C911197E1
S11307E09D012E5F3F4F820F931F2091082030916F
S11307F009202817390769F4309729F410920A2040
S113080010920B2002C012821382A0930820B0938E
S10F08100920DF91CF910895F894FFCFE8
S109081C00000C20200086
S9030000FC
