S01A00006174786D6567612D6134752D77616B6575702E7372656332
S11300000C94FE000C9424010C9424010C942401FF
S11300100C9424010C9424010C9424010C942401C8
S11300200C9424010C9424010C9424010C942401B8
S11300300C9424010C9424010C9424010C942401A8
S11300400C9424010C9424010C9424010C94240198
S11300500C9424010C9424010C9424010C94240188
S11300600C9424010C9424010C9424010C94240178
S11300700C9482010C94B9010C9424010C94240175
S11300800C9424010C9424010C9424010C94240158
S11300900C9424010C9424010C9424010C94240148
S11300A00C9424010C9424010C9424010C94240138
S11300B00C9424010C9424010C9424010C94240128
S11300C00C9424010C9424010C9424010C94240118
S11300D00C9424010C9424010C9424010C94240108
S11300E00C9424010C9424010C9424010C942401F8
S11300F00C9424010C9424010C9424010C942401E8
S11301000C9424010C9424010C9424010C942401D7
S11301100C9424010C9424010C9424010C942401C7
S11301200C9424010C9424010C9424010C942401B7
S11301300C9424010C9424010C9424010C942401A7
S11301400C9424010C9424010C9424010C94240197
S11301500C9424010C9424010C9424010C94240187
S11301600C94F0010C9427020C9424010C942401A7
S11301700C9424010C9424010C9424010C94240167
S11301800C9424010C9424010C9424010C94240157
S11301900C9424010C9424010C9424010C94240147
S11301A00C9424010C9424010C9424010C94240137
S11301B00C9424010C9424010C9424010C94240127
S11301C00C9424010C9424010C9424010C94240117
S11301D00C9424010C9424010C9424010C94240107
S11301E00C9424010C9424010C9424010C942401F7
S11301F00C9424010C9424010C94240111241FBE9A
S1130200CFEFCDBFDFE3DEBF00E00CBF18BE19BEE9
S11302101ABE1BBE20E2A6E0B0E201C01D92AE30C1
S1130220B207E1F710E2A0E0B0E2E6E9F9E000E0AD
S11302300BBF02C007900D92A630B107D9F71BBEC1
S11302400E9432010C94C9040C940000E0EAF0E02E
S113025082818FEF82830895E0EAF0E082818760F3
S113026082830895E0E5F0E088E1858380E180837E
S1130270818184FFFDCF88ED84BF84E080934000BA
S113028000E220E840E460E476E080EB98E00E943D
S1130290CA0280930620909307200E94000300E185
S11302A028E044E060E676E080EA99E00E94CA0231
S11302B080930820909309200E94000380E180939A
S11302C04106E0EAF0E0828187608283789400E46A
S11302D016E0C0E10E942601E0910620F09107207B
S11302E08585882351F0CF010E944503682F8091B2
S11302F00820909109200E949A03F801C7830E9464
S11303002C01E8CF1F920F920FB60F92112408B65A
S11303100F9218BE09B60F9219BE0BB60F921BBEF0
S11303202F933F934F935F936F937F938F939F93F9
S1130330AF93BF93EF93FF93809106209091072092
S11303400E943603FF91EF91BF91AF919F918F91DE
S11303507F916F915F914F913F912F910F900BBEC1
S11303600F9009BE0F9008BE0F900FBE0F901F9004
S113037018951F920F920FB60F92112408B60F9280
S113038018BE09B60F9219BE0BB60F921BBE2F935F
S11303903F934F935F936F937F938F939F93AF9309
S11303A0BF93EF93FF9380910620909107200E94C2
S11303B07903FF91EF91BF91AF919F918F917F91BD
S11303C06F915F914F913F912F910F900BBE0F90C2
S11303D009BE0F9008BE0F900FBE0F901F90189586
S11303E01F920F920FB60F92112408B60F9218BEE7
S11303F009B60F9219BE0BB60F921BBE2F933F93F3
S11304004F935F936F937F938F939F93AF93BF9318
S1130410EF93FF9380910820909109200E94360366
S1130420FF91EF91BF91AF919F918F917F916F91C8
S11304305F914F913F912F910F900BBE0F9009BE8A
S11304400F9008BE0F900FBE0F901F9018951F922B
S11304500F920FB60F92112408B60F9218BE09B668
S11304600F9219BE0BB60F921BBE2F933F934F935F
S11304705F936F937F938F939F93AF93BF93EF9308
S1130480FF9380910820909109200E947903FF91A5
S1130490EF91BF91AF919F918F917F916F915F91F8
S11304A04F913F912F910F900BBE0F9009BE0F906B
S11304B008BE0F900FBE0F901F901895CF92DF9239
S11304C0EF92FF92CF93DF936B017C0188E090E081
S11304D00E94A803EC01892BD1F0D701C601019633
S11304E0A11DB11D8C839D83AE83BF830E94A8038D
S11304F088839983892B29F01A821B828C2F9D2F44
S113050008C0CE010E94400480E090E002C080E078
S113051090E0DF91CF91FF90EF90DF90CF9008951E
S1130520FC018281A081B181A80FB11D6C9342812D
S11305304F5F428350E060E070E084819581A68142
S1130540B7810197A109B109481759076A077B07C1
S113055008F0128208950F931F93FC014381A08138
S1130560B181A40FB11D8C914F5F438350E060E0D3
S113057070E0048115812681378101501109210918
S11305803109401751076207730708F013821F915E
S11305900F910895AF92BF92CF92DF92FF920F9383
S11305A01F93CF93DF935C016B01F42E122F8EE027
S11305B090E00E94A803EC01A882B982CA82DB827F
S11305C0FC821D830E8360E170E080E090E00E9475
S11305D05E028F83988760E170E080E090E00E9483
S11305E05E0289879A871C861D86CE01DF91CF9192
S11305F01F910F91FF90DF90CF90BF90AF9008951F
S1130600FC01A081B1818BE916968C93A081B18104
S113061017961C92A081B18113968C9113978061D7
S113062013968C93A081B18188E114968C93A08158
S1130630B18183E015968C93A281B381858115964F
S11306408C93A281B381858111968C93A281B3810D
S1130650848112968C93A281B381848116968C93A3
S1130660A281B381868111968C930895CF93DF93F1
S1130670EC01E881F98160818F8198850E94900264
S113068081E08D87DF91CF910895CF93DF93EC01C3
S11306908F8198850E94AB02EF81F8852381928136
S11306A0291302C01D8602C091E09D87DF91CF917E
S11306B00895FC016487662371F0A081B1811396CB
S11306C08C911397816013968C93A281B381868158
S11306D015968C930895A081B18113968C911397EC
S11306E08C7F13968C93A281B381868116968C930A
S11306F008950F931F93CF93DF93EC010881198121
S113070089859A850E94AB02F8018083E985FA8580
S113071093818281981305C060E0CE010E94590341
S113072004C061E0CE010E945903DF91CF911F9173
S11307300F910895CF93DF93EC0189859A850E94E8
S1130740900261E0CE010E945903DF91CF91089598
S11307500F931F93CF93DF938230910510F482E0BF
S113076090E0E0910C20F0910D2020E030E0A0E03A
S1130770B0E0309719F1408151810281138148170B
S11307805907C8F08417950769F4109731F0129649
S11307900C93129713961C9327C000930C2010936C
S11307A00D2022C02115310519F04217530718F402
S11307B09A01BD01EF01DF01F801DBCF21153105FD
S11307C0F9F0281B390B2430310580F48A819B8190
S11307D06115710521F0FB018283938304C080932A
S11307E00C2090930D20FE01329644C0FE01E20FCE
S11307F0F31F8193919322503109288339833AC09E
S113080020910A2030910B20232B41F420910220C7
S11308103091032020930A2030930B202091002054
S1130820309101202115310541F42DB73EB7409197
S1130830042050910520241B350BE0910A20F091EF
S11308400B20E217F307A0F42E1B3F0B28173907E0
S113085078F0AC014E5F5F4F2417350748F04E0F18
S11308605F1F40930A2050930B208193919302C001
S1130870E0E0F0E0CF01DF91CF911F910F91089557
S1130880CF93DF93009709F481C0FC013297128261
S11308901382A0910C20B0910D20109781F4208137
S11308A03181820F931F20910A2030910B20281749
S11308B0390751F5E0930A20F0930B2067C0ED014E
S11308C020E030E0CE17DF0740F44A815B819E01CF
S11308D041155105F1F0EA01F5CFC283D38340817C
S11308E05181840F951FC817D90759F488819981BC
S11308F0840F951F0296808391838A819B818283D2
S113090093832115310529F4E0930C20F0930D20F5
S11309103DC0E901EA83FB8349915991C40FD51F76
S1130920EC17FD0761F480819181840F951F029675
S1130930E90188839983828193818A839B83E0E0A0
S1130940F0E012968D919C911397009719F0FD0198
S1130950DC01F7CF8D919C9111979D012E5F3F4F44
S1130960820F931F20910A2030910B2028173907FA
S113097069F4309729F410920C2010920D2002C0D3
S113098012821382A0930A20B0930B20DF91CF919F
S10909900895F894FFCF66
S109099600000E20200009
S9030000FC
