S01A00006174786D6567612D6134752D77616B6575702E7372656332
S11300000C94FE000C9424010C9424010C942401FF
S11300100C9424010C9424010C9424010C942401C8
S11300200C9424010C9424010C9424010C942401B8
S11300300C9424010C9424010C9424010C942401A8
S11300400C9424010C9424010C9424010C94240198
S11300500C9424010C9424010C9424010C94240188
S11300600C9424010C94AA010C94E1010C94240135
S11300700C9418020C944F020C9424010C94240147
S11300800C9424010C9424010C9424010C94240158
S11300900C9424010C9424010C9424010C94240148
S11300A00C9424010C9424010C9424010C94240138
S11300B00C9424010C9424010C9424010C94240128
S11300C00C9424010C9424010C9424010C94240118
S11300D00C9424010C9424010C9424010C94240108
S11300E00C9424010C9424010C9424010C942401F8
S11300F00C9424010C9424010C9424010C942401E8
S11301000C9424010C9424010C9424010C942401D7
S11301100C9424010C9424010C9424010C942401C7
S11301200C9424010C9424010C9424010C942401B7
S11301300C9424010C9424010C9424010C942401A7
S11301400C9424010C9424010C9424010C94240197
S11301500C9424010C9424010C9424010C94240187
S11301600C9486020C94BD020C9424010C9424017A
S11301700C94F4020C9424010C9424010C94240196
S11301800C9424010C9424010C9424010C94240157
S11301900C9424010C9424010C9424010C94240147
S11301A00C9424010C9424010C9424010C94240137
S11301B00C9424010C9424010C9424010C94240127
S11301C00C9424010C9424010C9424010C94240117
S11301D00C9424010C9424010C9424010C94240107
S11301E00C9424010C9424010C9424010C942401F7
S11301F00C9424010C9424010C94240111241FBE9A
S1130200CFEFCDBFDFE3DEBF00E00CBF18BE19BEE9
S11302101ABE1BBE10E2A0E0B0E2EEE4FBE000E098
S11302200BBF02C007900D92A630B107D9F71BBED1
S113023020E2A6E0B0E201C01D92A231B207E1F7CC
S11302400E9426010C94A5050C940000E0E5F0E062
S113025088E1858380E18083818184FFFDCF88EDFF
S113026084BF84E08093400000E128E044E060E43F
S113027076E080EA98E00E949803809308209093A7
S113028009200E94CF0300E220E840E460E476E025
S113029080EB98E00E9498038093062090930720B7
S11302A00E94CF0300E128E044E060E676E080EAC3
S11302B099E00E94980380930C2090930D200E9453
S11302C0CF0300E220E840E460E676E080EB99E0CA
S11302D00E94980380930A2090930B200E94CF03DE
S11302E0E0EAF0E08281876082837894809108203C
S11302F0909109200E94050480910C2090910D207A
S11303000E9405042FE78AE196E021508040904046
S1130310E1F700C00000EACFCF93DF931F92CDB77F
S1130320DEB7BE016F5F7F4F0E9437046981809101
S11303300A2090910B200E9476042FE78AE196E030
S1130340215080409040E1F700C000000F90DF9101
S1130350CF9108951F920F920FB60F92112408B6F1
S11303600F9218BE09B60F9219BE0BB60F921BBEA0
S11303702F933F934F935F936F937F938F939F93A9
S1130380AF93BF93EF93FF9380910820909109203E
S11303900E940E04FF91EF91BF91AF919F918F91B5
S11303A07F916F915F914F913F912F910F900BBE71
S11303B00F9009BE0F9008BE0F900FBE0F901F90B4
S11303C018951F920F920FB60F92112408B60F9230
S11303D018BE09B60F9219BE0BB60F921BBE2F930F
S11303E03F934F935F936F937F938F939F93AF93B9
S11303F0BF93EF93FF9380910820909109200E946E
S11304005604FF91EF91BF91AF919F918F917F918E
S11304106F915F914F913F912F910F900BBE0F9071
S113042009BE0F9008BE0F900FBE0F901F90189535
S11304301F920F920FB60F92112408B60F9218BE96
S113044009B60F9219BE0BB60F921BBE2F933F93A2
S11304504F935F936F937F938F939F93AF93BF93C8
S1130460EF93FF9380910620909107200E940E0441
S1130470FF91EF91BF91AF919F918F917F916F9178
S11304805F914F913F912F910F900BBE0F9009BE3A
S11304900F9008BE0F900FBE0F901F9018951F92DB
S11304A00F920FB60F92112408B60F9218BE09B618
S11304B00F9219BE0BB60F921BBE2F933F934F930F
S11304C05F936F937F938F939F93AF93BF93EF93B8
S11304D0FF9380910620909107200E945604FF917B
S11304E0EF91BF91AF919F918F917F916F915F91A8
S11304F04F913F912F910F900BBE0F9009BE0F901B
S113050008BE0F900FBE0F901F9018951F920F9268
S11305100FB60F92112408B60F9218BE09B60F92A7
S113052019BE0BB60F921BBE2F933F934F935F934D
S11305306F937F938F939F93AF93BF93EF93FF93A7
S113054080910C2090910D200E940E04FF91EF9158
S1130550BF91AF919F918F917F916F915F914F91D7
S11305603F912F910F900BBE0F9009BE0F9008BEC4
S11305700F900FBE0F901F9018951F920F920FB6F9
S11305800F92112408B60F9218BE09B60F9219BE25
S11305900BB60F921BBE2F933F934F935F936F93B2
S11305A07F938F939F93AF93BF93EF93FF93809128
S11305B00C2090910D200E945604FF91EF91BF9161
S11305C0AF919F918F917F916F915F914F913F91E7
S11305D02F910F900BBE0F9009BE0F9008BE0F9085
S11305E00FBE0F901F9018951F920F920FB60F9287
S11305F0112408B60F9218BE09B60F9219BE0BB695
S11306000F921BBE2F933F934F935F936F937F93F0
S11306108F939F93AF93BF93EF93FF9380910A209F
S113062090910B200E945604FF91EF91BF91AF91DE
S11306309F918F917F916F915F914F913F912F91F6
S11306400F900BBE0F9009BE0F9008BE0F900FBE07
S11306500F901F901895CF92DF92EF92FF92CF9355
S1130660DF936B017C0188E090E00E948404EC013C
S1130670892BD1F0D701C6010196A11DB11D8C8330
S11306809D83AE83BF830E94840488839983892BCE
S113069029F01A821B828C2F9D2F08C0CE010E9444
S11306A01C0580E090E002C080E090E0DF91CF91F3
S11306B0FF90EF90DF90CF900895FC018281A0819C
S11306C0B181A80FB11D6C9342814F5F428350E00A
S11306D060E070E084819581A681B781481759074D
S11306E06A077B0708F0128208950F931F93FC0199
S11306F04381A081B181A40FB11D8C914F5F4383CD
S113070050E060E070E00481158126813781401754
S113071051076207730708F013821F910F91089520
S1130720FC0181E023819281291301C080E00895B6
S1130730AF92BF92CF92DF92FF920F931F93CF930A
S1130740DF935C016B01F42E122F8EE090E00E9487
S11307508404EC01A882B982CA82DB82FC821D83F4
S11307600E8360E170E080E090E00E942B038F83B1
S1130770988760E170E080E090E00E942B03898715
S11307809A871B861C861D86CE01DF91CF911F910F
S11307900F91FF90DF90CF90BF90AF900895FC0130
S11307A0A081B1818BE916968C93A081B1811796B3
S11307B01C92A081B18113968C911397806113963A
S11307C08C93A081B18188E114968C93A081B1812E
S11307D083E015968C93A281B381858115968C93C1
S11307E0A281B381858111968C93A281B381848186
S11307F012968C93A281B381848116968C93A281E4
S1130800B381868111968C930895DC011296ED9143
S1130810FC91139716968C9187830895CF93DF9359
S1130820EC01EA81FB818E818783E881F9819081E3
S11308308D85882319F0813031F011C09E3779F409
S113084081E08D870CC09E3729F41D86CE010E945D
S11308508C0105C060818F8198850E945D038C8521
S1130860813011F081E08C87DF91CF91089581E58B
S1130870FB01808380E00895FC0183858617A9F03D
S1130880662351F0A081B18113968C9113978160F6
S113089013968C9363870895A081B18113968C91EC
S11308A013978C7F13968C93138608950F931F933D
S11308B0CF93DF93EC01EA81FB818E8187830881EA
S11308C0198189859A850E947503F8018083898539
S11308D09A850E949003811104C060E0CE010E94B9
S11308E03C04DF91CF911F910F910895CF93DF9333
S11308F0EC0189859A850E945D0361E0CE010E9426
S11309003C04DF91CF9108950F931F93CF93DF930E
S11309108230910510F482E090E0E0911020F09193
S1130920112020E030E0A0E0B0E0309719F14081E0
S113093051810281138148175907C8F0841795071C
S113094069F4109731F012960C93129713961C9336
S113095027C0009310201093112022C021153105C7
S113096019F04217530718F49A01BD01EF01DF0192
S1130970F801DBCF21153105F9F0281B390B2430A0
S1130980310580F48A819B816115710521F0FB0199
S11309908283938304C08093102090931120FE01DE
S11309A0329644C0FE01E20FF31F819391932250CB
S11309B03109288339833AC020910E2030910F20C9
S11309C0232B41F4209102203091032020930E2008
S11309D030930F2020910020309101202115310502
S11309E041F42DB73EB74091042050910520241BBB
S11309F0350BE0910E20F0910F20E217F307A0F4DD
S1130A002E1B3F0B2817390778F0AC014E5F5F4F60
S1130A102417350748F04E0F5F1F40930E20509364
S1130A200F208193919302C0E0E0F0E0CF01DF91C9
S1130A30CF911F910F910895CF93DF93009709F4FD
S1130A4081C0FC01329712821382A0911020B091D0
S1130A501120109781F420813181820F931F2091FE
S1130A600E2030910F202817390751F5E0930E20FE
S1130A70F0930F2067C0ED0120E030E0CE17DF07D0
S1130A8040F44A815B819E0141155105F1F0EA0170
S1130A90F5CFC283D38340815181840F951FC8173A
S1130AA0D90759F488819981840F951F0296808310
S1130AB091838A819B81828393832115310529F453
S1130AC0E0931020F09311203DC0E901EA83FB83F9
S1130AD049915991C40FD51FEC17FD0761F480812A
S1130AE09181840F951F0296E901888399838281FD
S1130AF093818A839B83E0E0F0E012968D919C9130
S1130B001397009719F0FD01DC01F7CF8D919C91AB
S1130B1011979D012E5F3F4F820F931F20910E204E
S1130B2030910F202817390769F4309729F410926F
S1130B3010201092112002C012821382A0930E2062
S1110B40B0930F20DF91CF910895F894FFCF6A
S1090B4E0000122020004B
S9030000FC
